{
  "contractName": "Gringotts",
  "abi": [
    {
      "inputs": [
        {
          "internalType": "contract IERC20",
          "name": "_galleon",
          "type": "address"
        }
      ],
      "stateMutability": "nonpayable",
      "type": "constructor"
    },
    {
      "anonymous": false,
      "inputs": [
        {
          "indexed": false,
          "internalType": "address",
          "name": "_accountAddress",
          "type": "address"
        },
        {
          "indexed": false,
          "internalType": "uint256",
          "name": "_depositAmount",
          "type": "uint256"
        }
      ],
      "name": "LogEthDeposit",
      "type": "event"
    },
    {
      "anonymous": false,
      "inputs": [
        {
          "indexed": false,
          "internalType": "address",
          "name": "_accountAddress",
          "type": "address"
        },
        {
          "indexed": false,
          "internalType": "uint256",
          "name": "_withdrawalAmount",
          "type": "uint256"
        },
        {
          "indexed": false,
          "internalType": "uint256",
          "name": "_updatedBalance",
          "type": "uint256"
        }
      ],
      "name": "LogEthWithdrawal",
      "type": "event"
    },
    {
      "anonymous": false,
      "inputs": [
        {
          "indexed": true,
          "internalType": "address",
          "name": "previousOwner",
          "type": "address"
        },
        {
          "indexed": true,
          "internalType": "address",
          "name": "newOwner",
          "type": "address"
        }
      ],
      "name": "OwnershipTransferred",
      "type": "event"
    },
    {
      "anonymous": false,
      "inputs": [
        {
          "indexed": false,
          "internalType": "address",
          "name": "account",
          "type": "address"
        }
      ],
      "name": "Paused",
      "type": "event"
    },
    {
      "anonymous": false,
      "inputs": [
        {
          "indexed": false,
          "internalType": "address",
          "name": "account",
          "type": "address"
        }
      ],
      "name": "Unpaused",
      "type": "event"
    },
    {
      "inputs": [],
      "name": "owner",
      "outputs": [
        {
          "internalType": "address",
          "name": "",
          "type": "address"
        }
      ],
      "stateMutability": "view",
      "type": "function"
    },
    {
      "inputs": [],
      "name": "paused",
      "outputs": [
        {
          "internalType": "bool",
          "name": "",
          "type": "bool"
        }
      ],
      "stateMutability": "view",
      "type": "function"
    },
    {
      "inputs": [],
      "name": "renounceOwnership",
      "outputs": [],
      "stateMutability": "nonpayable",
      "type": "function"
    },
    {
      "inputs": [
        {
          "internalType": "address",
          "name": "newOwner",
          "type": "address"
        }
      ],
      "name": "transferOwnership",
      "outputs": [],
      "stateMutability": "nonpayable",
      "type": "function"
    },
    {
      "inputs": [],
      "name": "deposit",
      "outputs": [],
      "stateMutability": "payable",
      "type": "function"
    },
    {
      "inputs": [
        {
          "internalType": "uint256",
          "name": "_amountToWithdrawInWei",
          "type": "uint256"
        }
      ],
      "name": "withdraw",
      "outputs": [],
      "stateMutability": "payable",
      "type": "function"
    },
    {
      "inputs": [
        {
          "internalType": "uint256",
          "name": "_amountToContractInGalleons",
          "type": "uint256"
        }
      ],
      "name": "transferGalleonsToContract",
      "outputs": [],
      "stateMutability": "nonpayable",
      "type": "function"
    },
    {
      "inputs": [
        {
          "internalType": "address",
          "name": "_user",
          "type": "address"
        }
      ],
      "name": "mintGalleonsToUser",
      "outputs": [],
      "stateMutability": "nonpayable",
      "type": "function"
    },
    {
      "inputs": [],
      "name": "getEthBalance",
      "outputs": [
        {
          "internalType": "uint256",
          "name": "",
          "type": "uint256"
        }
      ],
      "stateMutability": "view",
      "type": "function"
    },
    {
      "inputs": [],
      "name": "getTimestamp",
      "outputs": [
        {
          "internalType": "uint256",
          "name": "",
          "type": "uint256"
        }
      ],
      "stateMutability": "view",
      "type": "function"
    },
    {
      "inputs": [],
      "name": "pause",
      "outputs": [],
      "stateMutability": "nonpayable",
      "type": "function"
    },
    {
      "inputs": [],
      "name": "unpause",
      "outputs": [],
      "stateMutability": "nonpayable",
      "type": "function"
    }
  ],
  "bytecode": "0x60806040523480156200001157600080fd5b50604051620017933803806200179383398181016040528101906200003791906200019c565b620000576200004b620000b960201b60201c565b620000c160201b60201c565b60008060146101000a81548160ff02191690831515021790555080600160006101000a81548173ffffffffffffffffffffffffffffffffffffffff021916908373ffffffffffffffffffffffffffffffffffffffff160217905550506200022a565b600033905090565b60008060009054906101000a900473ffffffffffffffffffffffffffffffffffffffff169050816000806101000a81548173ffffffffffffffffffffffffffffffffffffffff021916908373ffffffffffffffffffffffffffffffffffffffff1602179055508173ffffffffffffffffffffffffffffffffffffffff168173ffffffffffffffffffffffffffffffffffffffff167f8be0079c531659141344cd1fd0a4f28419497f9722a3daafe3b4186f6b6457e060405160405180910390a35050565b600081519050620001968162000210565b92915050565b600060208284031215620001af57600080fd5b6000620001bf8482850162000185565b91505092915050565b6000620001d582620001f0565b9050919050565b6000620001e982620001c8565b9050919050565b600073ffffffffffffffffffffffffffffffffffffffff82169050919050565b6200021b81620001dc565b81146200022757600080fd5b50565b611559806200023a6000396000f3fe6080604052600436106100a75760003560e01c8063715018a611610064578063715018a6146101895780638456cb59146101a05780638da5cb5b146101b7578063d0e30db0146101e2578063d22fe713146101ec578063f2fde38b14610215576100a7565b8063188ec356146100ac5780632e1a7d4d146100d757806333fb3095146100f35780633f4ba83a1461011c5780635c975abb1461013357806370ed0ada1461015e575b600080fd5b3480156100b857600080fd5b506100c161023e565b6040516100ce919061139f565b60405180910390f35b6100f160048036038101906100ec9190610f55565b610285565b005b3480156100ff57600080fd5b5061011a60048036038101906101159190610f03565b61046e565b005b34801561012857600080fd5b506101316106ed565b005b34801561013f57600080fd5b50610148610773565b60405161015591906112a4565b60405180910390f35b34801561016a57600080fd5b50610173610789565b604051610180919061139f565b60405180910390f35b34801561019557600080fd5b5061019e6107d0565b005b3480156101ac57600080fd5b506101b5610858565b005b3480156101c357600080fd5b506101cc6108de565b6040516101d991906111c9565b60405180910390f35b6101ea610907565b005b3480156101f857600080fd5b50610213600480360381019061020e9190610f55565b610a70565b005b34801561022157600080fd5b5061023c60048036038101906102379190610f03565b610ba7565b005b6000600360003373ffffffffffffffffffffffffffffffffffffffff1673ffffffffffffffffffffffffffffffffffffffff16815260200190815260200160002054905090565b8080600260003373ffffffffffffffffffffffffffffffffffffffff1673ffffffffffffffffffffffffffffffffffffffff168152602001908152602001600020541015610308576040517f08c379a00000000000000000000000000000000000000000000000000000000081526004016102ff9061131f565b60405180910390fd5b600033905082600260003373ffffffffffffffffffffffffffffffffffffffff1673ffffffffffffffffffffffffffffffffffffffff168152602001908152602001600020600082825461035c9190611421565b925050819055506000600360003373ffffffffffffffffffffffffffffffffffffffff1673ffffffffffffffffffffffffffffffffffffffff168152602001908152602001600020819055508073ffffffffffffffffffffffffffffffffffffffff166108fc849081150290604051600060405180830381858888f193505050501580156103ee573d6000803e3d6000fd5b507ff4f955d21a0544a9d57a4f90e222e4b169ac9fffb73ccde4f24f3f5b30af65443384600260003373ffffffffffffffffffffffffffffffffffffffff1673ffffffffffffffffffffffffffffffffffffffff168152602001908152602001600020546040516104619392919061126d565b60405180910390a1505050565b804262278d00600360008473ffffffffffffffffffffffffffffffffffffffff1673ffffffffffffffffffffffffffffffffffffffff168152602001908152602001600020546104be9190611421565b106104fe576040517f08c379a00000000000000000000000000000000000000000000000000000000081526004016104f5906112df565b60405180910390fd5b6000600160009054906101000a900473ffffffffffffffffffffffffffffffffffffffff1673ffffffffffffffffffffffffffffffffffffffff166370a08231846040518263ffffffff1660e01b815260040161055b91906111c9565b60206040518083038186803b15801561057357600080fd5b505afa158015610587573d6000803e3d6000fd5b505050506040513d601f19601f820116820180604052508101906105ab9190610f7e565b146105eb576040517f08c379a00000000000000000000000000000000000000000000000000000000081526004016105e29061137f565b60405180910390fd5b600160009054906101000a900473ffffffffffffffffffffffffffffffffffffffff1673ffffffffffffffffffffffffffffffffffffffff1663a9059cbb83683635c9adc5dea000006040518363ffffffff1660e01b815260040161065192919061121b565b602060405180830381600087803b15801561066b57600080fd5b505af115801561067f573d6000803e3d6000fd5b505050506040513d601f19601f820116820180604052508101906106a39190610f2c565b506000600360008473ffffffffffffffffffffffffffffffffffffffff1673ffffffffffffffffffffffffffffffffffffffff168152602001908152602001600020819055505050565b6106f5610c9f565b73ffffffffffffffffffffffffffffffffffffffff166107136108de565b73ffffffffffffffffffffffffffffffffffffffff1614610769576040517f08c379a00000000000000000000000000000000000000000000000000000000081526004016107609061135f565b60405180910390fd5b610771610ca7565b565b60008060149054906101000a900460ff16905090565b6000600260003373ffffffffffffffffffffffffffffffffffffffff1673ffffffffffffffffffffffffffffffffffffffff16815260200190815260200160002054905090565b6107d8610c9f565b73ffffffffffffffffffffffffffffffffffffffff166107f66108de565b73ffffffffffffffffffffffffffffffffffffffff161461084c576040517f08c379a00000000000000000000000000000000000000000000000000000000081526004016108439061135f565b60405180910390fd5b6108566000610d48565b565b610860610c9f565b73ffffffffffffffffffffffffffffffffffffffff1661087e6108de565b73ffffffffffffffffffffffffffffffffffffffff16146108d4576040517f08c379a00000000000000000000000000000000000000000000000000000000081526004016108cb9061135f565b60405180910390fd5b6108dc610e0c565b565b60008060009054906101000a900473ffffffffffffffffffffffffffffffffffffffff16905090565b6000600360003373ffffffffffffffffffffffffffffffffffffffff1673ffffffffffffffffffffffffffffffffffffffff1681526020019081526020016000205414801561099557506000600260003373ffffffffffffffffffffffffffffffffffffffff1673ffffffffffffffffffffffffffffffffffffffff16815260200190815260200160002054145b156109df5742600360003373ffffffffffffffffffffffffffffffffffffffff1673ffffffffffffffffffffffffffffffffffffffff168152602001908152602001600020819055505b34600260003373ffffffffffffffffffffffffffffffffffffffff1673ffffffffffffffffffffffffffffffffffffffff1681526020019081526020016000206000828254610a2e91906113cb565b925050819055507f9568868fa21e796ac8cf51e680200fcf972c9276898b5cf97e83298bf617fc773334604051610a66929190611244565b60405180910390a1565b610a78610c9f565b73ffffffffffffffffffffffffffffffffffffffff16610a966108de565b73ffffffffffffffffffffffffffffffffffffffff1614610aec576040517f08c379a0000000000000000000000000000000000000000000000000000000008152600401610ae39061135f565b60405180910390fd5b6000339050600160009054906101000a900473ffffffffffffffffffffffffffffffffffffffff1673ffffffffffffffffffffffffffffffffffffffff166323b872dd8230856040518463ffffffff1660e01b8152600401610b50939291906111e4565b602060405180830381600087803b158015610b6a57600080fd5b505af1158015610b7e573d6000803e3d6000fd5b505050506040513d601f19601f82011682018060405250810190610ba29190610f2c565b505050565b610baf610c9f565b73ffffffffffffffffffffffffffffffffffffffff16610bcd6108de565b73ffffffffffffffffffffffffffffffffffffffff1614610c23576040517f08c379a0000000000000000000000000000000000000000000000000000000008152600401610c1a9061135f565b60405180910390fd5b600073ffffffffffffffffffffffffffffffffffffffff168173ffffffffffffffffffffffffffffffffffffffff161415610c93576040517f08c379a0000000000000000000000000000000000000000000000000000000008152600401610c8a906112ff565b60405180910390fd5b610c9c81610d48565b50565b600033905090565b610caf610773565b610cee576040517f08c379a0000000000000000000000000000000000000000000000000000000008152600401610ce5906112bf565b60405180910390fd5b60008060146101000a81548160ff0219169083151502179055507f5db9ee0a495bf2e6ff9c91a7834c1ba4fdd244a5e8aa4e537bd38aeae4b073aa610d31610c9f565b604051610d3e91906111c9565b60405180910390a1565b60008060009054906101000a900473ffffffffffffffffffffffffffffffffffffffff169050816000806101000a81548173ffffffffffffffffffffffffffffffffffffffff021916908373ffffffffffffffffffffffffffffffffffffffff1602179055508173ffffffffffffffffffffffffffffffffffffffff168173ffffffffffffffffffffffffffffffffffffffff167f8be0079c531659141344cd1fd0a4f28419497f9722a3daafe3b4186f6b6457e060405160405180910390a35050565b610e14610773565b15610e54576040517f08c379a0000000000000000000000000000000000000000000000000000000008152600401610e4b9061133f565b60405180910390fd5b6001600060146101000a81548160ff0219169083151502179055507f62e78cea01bee320cd4e420270b5ea74000d11b0c9f74754ebdbfc544b05a258610e98610c9f565b604051610ea591906111c9565b60405180910390a1565b600081359050610ebe816114de565b92915050565b600081519050610ed3816114f5565b92915050565b600081359050610ee88161150c565b92915050565b600081519050610efd8161150c565b92915050565b600060208284031215610f1557600080fd5b6000610f2384828501610eaf565b91505092915050565b600060208284031215610f3e57600080fd5b6000610f4c84828501610ec4565b91505092915050565b600060208284031215610f6757600080fd5b6000610f7584828501610ed9565b91505092915050565b600060208284031215610f9057600080fd5b6000610f9e84828501610eee565b91505092915050565b610fb081611455565b82525050565b610fbf81611467565b82525050565b610fce8161149d565b82525050565b6000610fe16014836113ba565b91507f5061757361626c653a206e6f74207061757365640000000000000000000000006000830152602082019050919050565b6000611021601d836113ba565b91507f4861736e27742068656c642066756e6473206c6f6e6720656e6f7567680000006000830152602082019050919050565b60006110616026836113ba565b91507f4f776e61626c653a206e6577206f776e657220697320746865207a65726f206160008301527f64647265737300000000000000000000000000000000000000000000000000006020830152604082019050919050565b60006110c76012836113ba565b91507f496e73756666696369656e742066756e647300000000000000000000000000006000830152602082019050919050565b60006111076010836113ba565b91507f5061757361626c653a20706175736564000000000000000000000000000000006000830152602082019050919050565b60006111476020836113ba565b91507f4f776e61626c653a2063616c6c6572206973206e6f7420746865206f776e65726000830152602082019050919050565b60006111876020836113ba565b91507f557365722068617320616c726561647920636c61696d656420726577617264736000830152602082019050919050565b6111c381611493565b82525050565b60006020820190506111de6000830184610fa7565b92915050565b60006060820190506111f96000830186610fa7565b6112066020830185610fa7565b61121360408301846111ba565b949350505050565b60006040820190506112306000830185610fa7565b61123d6020830184610fc5565b9392505050565b60006040820190506112596000830185610fa7565b61126660208301846111ba565b9392505050565b60006060820190506112826000830186610fa7565b61128f60208301856111ba565b61129c60408301846111ba565b949350505050565b60006020820190506112b96000830184610fb6565b92915050565b600060208201905081810360008301526112d881610fd4565b9050919050565b600060208201905081810360008301526112f881611014565b9050919050565b6000602082019050818103600083015261131881611054565b9050919050565b60006020820190508181036000830152611338816110ba565b9050919050565b60006020820190508181036000830152611358816110fa565b9050919050565b600060208201905081810360008301526113788161113a565b9050919050565b600060208201905081810360008301526113988161117a565b9050919050565b60006020820190506113b460008301846111ba565b92915050565b600082825260208201905092915050565b60006113d682611493565b91506113e183611493565b9250827fffffffffffffffffffffffffffffffffffffffffffffffffffffffffffffffff03821115611416576114156114af565b5b828201905092915050565b600061142c82611493565b915061143783611493565b92508282101561144a576114496114af565b5b828203905092915050565b600061146082611473565b9050919050565b60008115159050919050565b600073ffffffffffffffffffffffffffffffffffffffff82169050919050565b6000819050919050565b60006114a882611493565b9050919050565b7f4e487b7100000000000000000000000000000000000000000000000000000000600052601160045260246000fd5b6114e781611455565b81146114f257600080fd5b50565b6114fe81611467565b811461150957600080fd5b50565b61151581611493565b811461152057600080fd5b5056fea26469706673582212208f7fe3ec5d709509d850ba7b75fe43374788002ac18b1a3d3345363e9c105c7064736f6c63430008000033",
  "immutableReferences": {},
  "source": "// SPDX-License-Identifier: MIT\npragma solidity ^0.8.0;\n\nimport \"@openzeppelin/contracts/access/Ownable.sol\";\nimport \"@openzeppelin/contracts/security/Pausable.sol\";\nimport \"@openzeppelin/contracts/token/ERC20/ERC20.sol\";\n /**\n  /// @title Gringotts Bank Dapp\n  /// @author Dinah Johnson\n  /// @notice You can use this contract for basic DeFi simulations of deposits, withdrawals, and rewarding liquidity providers\n  */\ncontract Gringotts is Ownable, Pausable {\n  /// @dev refer to https://docs.openzeppelin.com/contracts/2.x/api/token/erc20#IERC20\n  IERC20 private galleon;\n\n  mapping (address => uint) private balances;\n  mapping (address => uint) private timestamp;\n  \n  /// @notice You have made a deposit in the Gringotts Bank\n  event LogEthDeposit(address _accountAddress, uint _depositAmount);\n  \n  /// @notice You have made a withdrawal from the Gringotts Bank\n  event LogEthWithdrawal(address _accountAddress,uint _withdrawalAmount, uint _updatedBalance);\n\n  /**\n    @param _galleon the ERC20 token this contract will use\n    @notice After the Galleon contract is deployed the address of the Galleon contract is \n      passed to the constructor of this bank contract so the bank can use ERC20 tokens\n  */\n  constructor (IERC20 _galleon) {\n    galleon = _galleon;\n  }\n\n  /// @param _amountToWithdrawInWei the amount the user wants to withdraw in Wei\n  /// @notice User must have sufficient funds in their account balance to withdraw their Wei \n  modifier hasFunds(uint _amountToWithdrawInWei) {\n    require(balances[msg.sender] >= _amountToWithdrawInWei, \"Insufficient funds\");\n    _; \n  }\n\n  /// @param _user the user must have an account with a balance in the bank to receive Galleon token rewards\n  /// @param timestamp set to the block timestamp at the time of the user's initial deposit into the bank\n  /** @notice In production the requirement would be for a user to hold a deposit in the bank for >= 1 year:\n      For the purpose of testing this project, the user will receive Galleons for making an initial deposit \n      without the aforementioned time requirement. \n  */\n  modifier isHodler(address _user) {\n    /// @dev In production, uncomment line 55 (next line) and delete line 56 (next line + 1)\n      // require((timestamp[_user] + 365 days) >= block.timestamp, \"Hasn't held funds longer than 1 year\");\n    require((timestamp[_user] - 30 days) < block.timestamp, \"Hasn't held funds long enough\");\n    _;\n  }\n\n  /// @notice You have made a deposit to your Gringotts Bank account\n  function deposit() external payable {\n    /// @notice block timestamp is stored for each user on their initial deposit\n    if(timestamp[msg.sender] == 0 && balances[msg.sender] == 0) {\n      timestamp[msg.sender] = block.timestamp;\n    }\n\n    /// @notice updates user's wei balance in their bank account\n    balances[msg.sender] += msg.value;\n\n    /// @notice emits log of the deposit\n    emit LogEthDeposit(msg.sender, msg.value);\n  }\n\n  /// @param _amountToWithdrawInWei amount user wishes to withdraw in wei\n  /// @notice You have made a withdrawal from your Gringotts Bank account\n  function withdraw(uint _amountToWithdrawInWei) external payable hasFunds(_amountToWithdrawInWei) {\n    \n    address payable _user = payable(msg.sender);\n    \n    /// @notice withdrawal amount in wei deducted from user's balance in their bank account\n    balances[msg.sender] -= _amountToWithdrawInWei;\n    \n    /// @notice timestamp for tracking how long user has held a deposit without withdrawing liquidity is reset to 0\n    timestamp[msg.sender] = 0;\n\n    /// @notice withdrawal amount in wei is transferred to the user's EOA\n    _user.transfer(_amountToWithdrawInWei);\n    \n    /// @notice emits log of the withdrawal\n    emit LogEthWithdrawal(msg.sender, _amountToWithdrawInWei, balances[msg.sender]);\n  }\n\n  /// @param from the owner\n  /** @notice Allows only the owner of the ERC20 contract Galleon.sol to approve this\n      contract to spend Galleon tokens. \n  */\n  function transferGalleonsToContract(uint _amountToContractInGalleons) external onlyOwner {\n    address from = msg.sender;\n\n    /// @dev refer to https://forum.openzeppelin.com/t/example-on-how-to-use-erc20-token-in-another-contract/1682\n    /// @notice Transfers Galleon ERC20 token from the owner to this contract so bank\n    galleon.transferFrom(from, address(this), _amountToContractInGalleons);\n  }\n\n  /// @notice Rewards liquidity providers with Galleon tokens if they hold a deposit in the bank\n  function mintGalleonsToUser(address _user) public isHodler(_user) {\n    /**  @dev In production the isHodler requirement would add the requirement of holding a deposit \n          for 1 year to receive reward tokens */ \n    require(galleon.balanceOf(_user) == 0, \"User has already claimed rewards\");\n    \n    /// @notice allows the bank to transfer 1000 Galleons to an account holder\n    galleon.transfer(_user, 1000 * 10**18);\n\n    /// @notice timestamp for user is reset to 0 once rewards are claimed for the year\n    timestamp[_user] = 0;\n  }\n\n  /// @notice Get wei balance in user's account \n  /// @return returns uint\n  function getEthBalance() external view returns (uint) {\n    return balances[msg.sender];\n  }\n\n  /// @notice Get timestamp for how long user has provided liquidity to bank  \n  /// @return returns uint\n  function getTimestamp() external view returns(uint) {\n    return timestamp[msg.sender];\n  }\n\n  /// @notice Pause the contract \n  /// @dev Circuit breaker pattern\n  function pause() public onlyOwner {\n    Pausable._pause();\n  }\n\n  /// @notice Resume the contract for both reads and writes\n  /// @dev Circuit breaker pattern\n  function unpause() public onlyOwner {\n    Pausable._unpause();\n  }\n}",
  "sourcePath": "/Users/dinahj/Desktop/Consensys-Bootcamp/blockchain-developer-bootcamp-final-project/contracts/Gringotts.sol",
  "compiler": {
    "name": "solc",
    "version": "0.8.0+commit.c7dfd78e.Emscripten.clang"
  },
  "schemaVersion": "3.4.3",
  "updatedAt": "2021-11-29T22:01:13.959Z",
  "devdoc": {
    "author": "Dinah Johnson",
    "kind": "dev",
    "methods": {
      "constructor": {
        "params": {
          "_galleon": "the ERC20 token this contract will use"
        }
      },
      "getEthBalance()": {
        "returns": {
          "_0": "returns uint"
        }
      },
      "getTimestamp()": {
        "returns": {
          "_0": "returns uint"
        }
      },
      "owner()": {
        "details": "Returns the address of the current owner."
      },
      "pause()": {
        "details": "Circuit breaker pattern"
      },
      "paused()": {
        "details": "Returns true if the contract is paused, and false otherwise."
      },
      "renounceOwnership()": {
        "details": "Leaves the contract without owner. It will not be possible to call `onlyOwner` functions anymore. Can only be called by the current owner. NOTE: Renouncing ownership will leave the contract without an owner, thereby removing any functionality that is only available to the owner."
      },
      "transferOwnership(address)": {
        "details": "Transfers ownership of the contract to a new account (`newOwner`). Can only be called by the current owner."
      },
      "unpause()": {
        "details": "Circuit breaker pattern"
      },
      "withdraw(uint256)": {
        "params": {
          "_amountToWithdrawInWei": "amount user wishes to withdraw in wei"
        }
      }
    },
    "stateVariables": {
      "galleon": {
        "details": "refer to https://docs.openzeppelin.com/contracts/2.x/api/token/erc20#IERC20"
      }
    },
    "title": "Gringotts Bank Dapp",
    "version": 1
  },
  "userdoc": {
    "events": {
      "LogEthDeposit(address,uint256)": {
        "notice": "You have made a deposit in the Gringotts Bank"
      },
      "LogEthWithdrawal(address,uint256,uint256)": {
        "notice": "You have made a withdrawal from the Gringotts Bank"
      }
    },
    "kind": "user",
    "methods": {
      "constructor": {
        "notice": "After the Galleon contract is deployed the address of the Galleon contract is  passed to the constructor of this bank contract so the bank can use ERC20 tokens"
      },
      "deposit()": {
        "notice": "You have made a deposit to your Gringotts Bank account"
      },
      "getEthBalance()": {
        "notice": "Get wei balance in user's account "
      },
      "getTimestamp()": {
        "notice": "Get timestamp for how long user has provided liquidity to bank  "
      },
      "mintGalleonsToUser(address)": {
        "notice": "Rewards liquidity providers with Galleon tokens if they hold a deposit in the bank"
      },
      "pause()": {
        "notice": "Pause the contract "
      },
      "transferGalleonsToContract(uint256)": {
        "notice": "Allows only the owner of the ERC20 contract Galleon.sol to approve this contract to spend Galleon tokens. "
      },
      "unpause()": {
        "notice": "Resume the contract for both reads and writes"
      },
      "withdraw(uint256)": {
        "notice": "You have made a withdrawal from your Gringotts Bank account"
      }
    },
    "notice": "You can use this contract for basic DeFi simulations of deposits, withdrawals, and rewarding liquidity providers",
    "version": 1
  }
}