{
  "contractName": "Gringotts",
  "abi": [
    {
      "inputs": [
        {
          "internalType": "contract IERC20",
          "name": "_galleon",
          "type": "address"
        }
      ],
      "stateMutability": "nonpayable",
      "type": "constructor"
    },
    {
      "anonymous": false,
      "inputs": [
        {
          "indexed": false,
          "internalType": "address",
          "name": "_accountAddress",
          "type": "address"
        },
        {
          "indexed": false,
          "internalType": "uint256",
          "name": "_depositAmount",
          "type": "uint256"
        }
      ],
      "name": "LogWeiDeposit",
      "type": "event"
    },
    {
      "anonymous": false,
      "inputs": [
        {
          "indexed": false,
          "internalType": "address",
          "name": "_accountAddress",
          "type": "address"
        },
        {
          "indexed": false,
          "internalType": "uint256",
          "name": "_withdrawalAmount",
          "type": "uint256"
        },
        {
          "indexed": false,
          "internalType": "uint256",
          "name": "_updatedBalance",
          "type": "uint256"
        }
      ],
      "name": "LogWeiWithdrawal",
      "type": "event"
    },
    {
      "anonymous": false,
      "inputs": [
        {
          "indexed": true,
          "internalType": "address",
          "name": "previousOwner",
          "type": "address"
        },
        {
          "indexed": true,
          "internalType": "address",
          "name": "newOwner",
          "type": "address"
        }
      ],
      "name": "OwnershipTransferred",
      "type": "event"
    },
    {
      "anonymous": false,
      "inputs": [
        {
          "indexed": false,
          "internalType": "address",
          "name": "account",
          "type": "address"
        }
      ],
      "name": "Paused",
      "type": "event"
    },
    {
      "anonymous": false,
      "inputs": [
        {
          "indexed": false,
          "internalType": "address",
          "name": "account",
          "type": "address"
        }
      ],
      "name": "Unpaused",
      "type": "event"
    },
    {
      "inputs": [],
      "name": "owner",
      "outputs": [
        {
          "internalType": "address",
          "name": "",
          "type": "address"
        }
      ],
      "stateMutability": "view",
      "type": "function",
      "constant": true
    },
    {
      "inputs": [],
      "name": "paused",
      "outputs": [
        {
          "internalType": "bool",
          "name": "",
          "type": "bool"
        }
      ],
      "stateMutability": "view",
      "type": "function",
      "constant": true
    },
    {
      "inputs": [],
      "name": "renounceOwnership",
      "outputs": [],
      "stateMutability": "nonpayable",
      "type": "function"
    },
    {
      "inputs": [
        {
          "internalType": "address",
          "name": "newOwner",
          "type": "address"
        }
      ],
      "name": "transferOwnership",
      "outputs": [],
      "stateMutability": "nonpayable",
      "type": "function"
    },
    {
      "inputs": [],
      "name": "deposit",
      "outputs": [],
      "stateMutability": "payable",
      "type": "function",
      "payable": true
    },
    {
      "inputs": [
        {
          "internalType": "uint256",
          "name": "_amountToWithdrawInWei",
          "type": "uint256"
        }
      ],
      "name": "withdraw",
      "outputs": [],
      "stateMutability": "payable",
      "type": "function",
      "payable": true
    },
    {
      "inputs": [
        {
          "internalType": "uint256",
          "name": "_amountToContractInGalleons",
          "type": "uint256"
        }
      ],
      "name": "transferGalleonsToContract",
      "outputs": [],
      "stateMutability": "nonpayable",
      "type": "function"
    },
    {
      "inputs": [
        {
          "internalType": "address",
          "name": "_user",
          "type": "address"
        }
      ],
      "name": "mintGalleonsToUser",
      "outputs": [],
      "stateMutability": "nonpayable",
      "type": "function"
    },
    {
      "inputs": [],
      "name": "getWeiBalance",
      "outputs": [
        {
          "internalType": "uint256",
          "name": "",
          "type": "uint256"
        }
      ],
      "stateMutability": "view",
      "type": "function",
      "constant": true
    },
    {
      "inputs": [],
      "name": "getTimestamp",
      "outputs": [
        {
          "internalType": "uint256",
          "name": "",
          "type": "uint256"
        }
      ],
      "stateMutability": "view",
      "type": "function",
      "constant": true
    },
    {
      "inputs": [],
      "name": "pause",
      "outputs": [],
      "stateMutability": "nonpayable",
      "type": "function"
    },
    {
      "inputs": [],
      "name": "unpause",
      "outputs": [],
      "stateMutability": "nonpayable",
      "type": "function"
    }
  ],
  "bytecode": "0x60806040523480156200001157600080fd5b5060405162001a9c38038062001a9c8339818101604052810190620000379190620001a3565b620000576200004b620000c060201b60201c565b620000c860201b60201c565b60008060146101000a81548160ff0219169083151502179055506001808190555080600260006101000a81548173ffffffffffffffffffffffffffffffffffffffff021916908373ffffffffffffffffffffffffffffffffffffffff1602179055505062000231565b600033905090565b60008060009054906101000a900473ffffffffffffffffffffffffffffffffffffffff169050816000806101000a81548173ffffffffffffffffffffffffffffffffffffffff021916908373ffffffffffffffffffffffffffffffffffffffff1602179055508173ffffffffffffffffffffffffffffffffffffffff168173ffffffffffffffffffffffffffffffffffffffff167f8be0079c531659141344cd1fd0a4f28419497f9722a3daafe3b4186f6b6457e060405160405180910390a35050565b6000815190506200019d8162000217565b92915050565b600060208284031215620001b657600080fd5b6000620001c6848285016200018c565b91505092915050565b6000620001dc82620001f7565b9050919050565b6000620001f082620001cf565b9050919050565b600073ffffffffffffffffffffffffffffffffffffffff82169050919050565b6200022281620001e3565b81146200022e57600080fd5b50565b61185b80620002416000396000f3fe6080604052600436106100a75760003560e01c80638456cb59116100645780638456cb59146101755780638da5cb5b1461018c578063b63ed405146101b7578063d0e30db0146101e2578063d22fe713146101ec578063f2fde38b14610215576100a7565b8063188ec356146100ac5780632e1a7d4d146100d757806333fb3095146100f35780633f4ba83a1461011c5780635c975abb14610133578063715018a61461015e575b600080fd5b3480156100b857600080fd5b506100c161023e565b6040516100ce9190611696565b60405180910390f35b6100f160048036038101906100ec91906110fd565b610285565b005b3480156100ff57600080fd5b5061011a600480360381019061011591906110ab565b610529565b005b34801561012857600080fd5b506101316107fd565b005b34801561013f57600080fd5b50610148610883565b604051610155919061153b565b60405180910390f35b34801561016a57600080fd5b50610173610899565b005b34801561018157600080fd5b5061018a610921565b005b34801561019857600080fd5b506101a16109a7565b6040516101ae9190611460565b60405180910390f35b3480156101c357600080fd5b506101cc6109d0565b6040516101d99190611696565b60405180910390f35b6101ea610a17565b005b3480156101f857600080fd5b50610213600480360381019061020e91906110fd565b610c18565b005b34801561022157600080fd5b5061023c600480360381019061023791906110ab565b610d4f565b005b6000600460003373ffffffffffffffffffffffffffffffffffffffff1673ffffffffffffffffffffffffffffffffffffffff16815260200190815260200160002054905090565b8080600360003373ffffffffffffffffffffffffffffffffffffffff1673ffffffffffffffffffffffffffffffffffffffff168152602001908152602001600020541015610308576040517f08c379a00000000000000000000000000000000000000000000000000000000081526004016102ff906115b6565b60405180910390fd5b6002600154141561034e576040517f08c379a000000000000000000000000000000000000000000000000000000000815260040161034590611676565b60405180910390fd5b6002600181905550600033905082600360003373ffffffffffffffffffffffffffffffffffffffff1673ffffffffffffffffffffffffffffffffffffffff16815260200190815260200160002060008282546103aa9190611723565b925050819055506000600460003373ffffffffffffffffffffffffffffffffffffffff1673ffffffffffffffffffffffffffffffffffffffff1681526020019081526020016000208190555060008173ffffffffffffffffffffffffffffffffffffffff168460405161041c9061144b565b60006040518083038185875af1925050503d8060008114610459576040519150601f19603f3d011682016040523d82523d6000602084013e61045e565b606091505b50509050806104a2576040517f08c379a000000000000000000000000000000000000000000000000000000000815260040161049990611636565b60405180910390fd5b7fa35e49ae3134168c195436d0e777a45981178d7d7c49aa78b23d58110fd9c7343385600360003373ffffffffffffffffffffffffffffffffffffffff1673ffffffffffffffffffffffffffffffffffffffff1681526020019081526020016000205460405161051493929190611504565b60405180910390a15050600180819055505050565b804262015180600460008473ffffffffffffffffffffffffffffffffffffffff1673ffffffffffffffffffffffffffffffffffffffff168152602001908152602001600020546105799190611723565b106105b9576040517f08c379a00000000000000000000000000000000000000000000000000000000081526004016105b090611576565b60405180910390fd5b600260015414156105ff576040517f08c379a00000000000000000000000000000000000000000000000000000000081526004016105f690611676565b60405180910390fd5b60026001819055506000600260009054906101000a900473ffffffffffffffffffffffffffffffffffffffff1673ffffffffffffffffffffffffffffffffffffffff166370a08231846040518263ffffffff1660e01b81526004016106649190611460565b60206040518083038186803b15801561067c57600080fd5b505afa158015610690573d6000803e3d6000fd5b505050506040513d601f19601f820116820180604052508101906106b49190611126565b146106f4576040517f08c379a00000000000000000000000000000000000000000000000000000000081526004016106eb90611656565b60405180910390fd5b600260009054906101000a900473ffffffffffffffffffffffffffffffffffffffff1673ffffffffffffffffffffffffffffffffffffffff1663a9059cbb83683635c9adc5dea000006040518363ffffffff1660e01b815260040161075a9291906114b2565b602060405180830381600087803b15801561077457600080fd5b505af1158015610788573d6000803e3d6000fd5b505050506040513d601f19601f820116820180604052508101906107ac91906110d4565b506000600460008473ffffffffffffffffffffffffffffffffffffffff1673ffffffffffffffffffffffffffffffffffffffff16815260200190815260200160002081905550600180819055505050565b610805610e47565b73ffffffffffffffffffffffffffffffffffffffff166108236109a7565b73ffffffffffffffffffffffffffffffffffffffff1614610879576040517f08c379a000000000000000000000000000000000000000000000000000000000815260040161087090611616565b60405180910390fd5b610881610e4f565b565b60008060149054906101000a900460ff16905090565b6108a1610e47565b73ffffffffffffffffffffffffffffffffffffffff166108bf6109a7565b73ffffffffffffffffffffffffffffffffffffffff1614610915576040517f08c379a000000000000000000000000000000000000000000000000000000000815260040161090c90611616565b60405180910390fd5b61091f6000610ef0565b565b610929610e47565b73ffffffffffffffffffffffffffffffffffffffff166109476109a7565b73ffffffffffffffffffffffffffffffffffffffff161461099d576040517f08c379a000000000000000000000000000000000000000000000000000000000815260040161099490611616565b60405180910390fd5b6109a5610fb4565b565b60008060009054906101000a900473ffffffffffffffffffffffffffffffffffffffff16905090565b6000600360003373ffffffffffffffffffffffffffffffffffffffff1673ffffffffffffffffffffffffffffffffffffffff16815260200190815260200160002054905090565b60026001541415610a5d576040517f08c379a0000000000000000000000000000000000000000000000000000000008152600401610a5490611676565b60405180910390fd5b600260018190555060003411610aa8576040517f08c379a0000000000000000000000000000000000000000000000000000000008152600401610a9f906115f6565b60405180910390fd5b6000600460003373ffffffffffffffffffffffffffffffffffffffff1673ffffffffffffffffffffffffffffffffffffffff16815260200190815260200160002054148015610b3657506000600360003373ffffffffffffffffffffffffffffffffffffffff1673ffffffffffffffffffffffffffffffffffffffff16815260200190815260200160002054145b15610b805742600460003373ffffffffffffffffffffffffffffffffffffffff1673ffffffffffffffffffffffffffffffffffffffff168152602001908152602001600020819055505b34600360003373ffffffffffffffffffffffffffffffffffffffff1673ffffffffffffffffffffffffffffffffffffffff1681526020019081526020016000206000828254610bcf91906116cd565b925050819055507f4f0483225e212303c792bd0626f122345e7b9b71d5b334ae7e0cfc24b7caab513334604051610c079291906114db565b60405180910390a160018081905550565b610c20610e47565b73ffffffffffffffffffffffffffffffffffffffff16610c3e6109a7565b73ffffffffffffffffffffffffffffffffffffffff1614610c94576040517f08c379a0000000000000000000000000000000000000000000000000000000008152600401610c8b90611616565b60405180910390fd5b6000339050600260009054906101000a900473ffffffffffffffffffffffffffffffffffffffff1673ffffffffffffffffffffffffffffffffffffffff166323b872dd8230856040518463ffffffff1660e01b8152600401610cf89392919061147b565b602060405180830381600087803b158015610d1257600080fd5b505af1158015610d26573d6000803e3d6000fd5b505050506040513d601f19601f82011682018060405250810190610d4a91906110d4565b505050565b610d57610e47565b73ffffffffffffffffffffffffffffffffffffffff16610d756109a7565b73ffffffffffffffffffffffffffffffffffffffff1614610dcb576040517f08c379a0000000000000000000000000000000000000000000000000000000008152600401610dc290611616565b60405180910390fd5b600073ffffffffffffffffffffffffffffffffffffffff168173ffffffffffffffffffffffffffffffffffffffff161415610e3b576040517f08c379a0000000000000000000000000000000000000000000000000000000008152600401610e3290611596565b60405180910390fd5b610e4481610ef0565b50565b600033905090565b610e57610883565b610e96576040517f08c379a0000000000000000000000000000000000000000000000000000000008152600401610e8d90611556565b60405180910390fd5b60008060146101000a81548160ff0219169083151502179055507f5db9ee0a495bf2e6ff9c91a7834c1ba4fdd244a5e8aa4e537bd38aeae4b073aa610ed9610e47565b604051610ee69190611460565b60405180910390a1565b60008060009054906101000a900473ffffffffffffffffffffffffffffffffffffffff169050816000806101000a81548173ffffffffffffffffffffffffffffffffffffffff021916908373ffffffffffffffffffffffffffffffffffffffff1602179055508173ffffffffffffffffffffffffffffffffffffffff168173ffffffffffffffffffffffffffffffffffffffff167f8be0079c531659141344cd1fd0a4f28419497f9722a3daafe3b4186f6b6457e060405160405180910390a35050565b610fbc610883565b15610ffc576040517f08c379a0000000000000000000000000000000000000000000000000000000008152600401610ff3906115d6565b60405180910390fd5b6001600060146101000a81548160ff0219169083151502179055507f62e78cea01bee320cd4e420270b5ea74000d11b0c9f74754ebdbfc544b05a258611040610e47565b60405161104d9190611460565b60405180910390a1565b600081359050611066816117e0565b92915050565b60008151905061107b816117f7565b92915050565b6000813590506110908161180e565b92915050565b6000815190506110a58161180e565b92915050565b6000602082840312156110bd57600080fd5b60006110cb84828501611057565b91505092915050565b6000602082840312156110e657600080fd5b60006110f48482850161106c565b91505092915050565b60006020828403121561110f57600080fd5b600061111d84828501611081565b91505092915050565b60006020828403121561113857600080fd5b600061114684828501611096565b91505092915050565b61115881611757565b82525050565b61116781611769565b82525050565b6111768161179f565b82525050565b60006111896014836116bc565b91507f5061757361626c653a206e6f74207061757365640000000000000000000000006000830152602082019050919050565b60006111c9601d836116bc565b91507f4861736e27742068656c642066756e6473206c6f6e6720656e6f7567680000006000830152602082019050919050565b60006112096026836116bc565b91507f4f776e61626c653a206e6577206f776e657220697320746865207a65726f206160008301527f64647265737300000000000000000000000000000000000000000000000000006020830152604082019050919050565b600061126f6012836116bc565b91507f496e73756666696369656e742066756e647300000000000000000000000000006000830152602082019050919050565b60006112af6010836116bc565b91507f5061757361626c653a20706175736564000000000000000000000000000000006000830152602082019050919050565b60006112ef601b836116bc565b91507f4d757374206465706f736974206174206c6561737420312077656900000000006000830152602082019050919050565b600061132f6020836116bc565b91507f4f776e61626c653a2063616c6c6572206973206e6f7420746865206f776e65726000830152602082019050919050565b600061136f6000836116b1565b9150600082019050919050565b60006113896010836116bc565b91507f5472616e73666572206661696c65642e000000000000000000000000000000006000830152602082019050919050565b60006113c96020836116bc565b91507f557365722068617320616c726561647920636c61696d656420726577617264736000830152602082019050919050565b6000611409601f836116bc565b91507f5265656e7472616e637947756172643a207265656e7472616e742063616c6c006000830152602082019050919050565b61144581611795565b82525050565b600061145682611362565b9150819050919050565b6000602082019050611475600083018461114f565b92915050565b6000606082019050611490600083018661114f565b61149d602083018561114f565b6114aa604083018461143c565b949350505050565b60006040820190506114c7600083018561114f565b6114d4602083018461116d565b9392505050565b60006040820190506114f0600083018561114f565b6114fd602083018461143c565b9392505050565b6000606082019050611519600083018661114f565b611526602083018561143c565b611533604083018461143c565b949350505050565b6000602082019050611550600083018461115e565b92915050565b6000602082019050818103600083015261156f8161117c565b9050919050565b6000602082019050818103600083015261158f816111bc565b9050919050565b600060208201905081810360008301526115af816111fc565b9050919050565b600060208201905081810360008301526115cf81611262565b9050919050565b600060208201905081810360008301526115ef816112a2565b9050919050565b6000602082019050818103600083015261160f816112e2565b9050919050565b6000602082019050818103600083015261162f81611322565b9050919050565b6000602082019050818103600083015261164f8161137c565b9050919050565b6000602082019050818103600083015261166f816113bc565b9050919050565b6000602082019050818103600083015261168f816113fc565b9050919050565b60006020820190506116ab600083018461143c565b92915050565b600081905092915050565b600082825260208201905092915050565b60006116d882611795565b91506116e383611795565b9250827fffffffffffffffffffffffffffffffffffffffffffffffffffffffffffffffff03821115611718576117176117b1565b5b828201905092915050565b600061172e82611795565b915061173983611795565b92508282101561174c5761174b6117b1565b5b828203905092915050565b600061176282611775565b9050919050565b60008115159050919050565b600073ffffffffffffffffffffffffffffffffffffffff82169050919050565b6000819050919050565b60006117aa82611795565b9050919050565b7f4e487b7100000000000000000000000000000000000000000000000000000000600052601160045260246000fd5b6117e981611757565b81146117f457600080fd5b50565b61180081611769565b811461180b57600080fd5b50565b61181781611795565b811461182257600080fd5b5056fea26469706673582212207629297205f0749e62652afd0ee8d22e992d181c8cf22887038557768fdae06464736f6c63430008000033",
  "immutableReferences": {},
  "source": "// SPDX-License-Identifier: MIT\npragma solidity 0.8.0;\n\nimport \"@openzeppelin/contracts/access/Ownable.sol\";\nimport \"@openzeppelin/contracts/security/Pausable.sol\";\nimport \"@openzeppelin/contracts/token/ERC20/ERC20.sol\";\nimport \"@openzeppelin/contracts/security/ReentrancyGuard.sol\";\n /**\n  /// @title Gringotts Bank Dapp\n  /// @author Dinah Johnson\n  /// @notice You can use this contract for basic DeFi simulations of deposits, withdrawals, and rewarding liquidity providers\n  */\ncontract Gringotts is Ownable, Pausable, ReentrancyGuard {\n  /// @dev refer to https://docs.openzeppelin.com/contracts/2.x/api/token/erc20#IERC20\n  IERC20 private galleon;\n\n  mapping (address => uint) private balances;\n  mapping (address => uint) private timestamp;\n  \n  /// @notice You have made a deposit in the Gringotts Bank\n  event LogWeiDeposit(address _accountAddress, uint _depositAmount);\n  \n  /// @notice You have made a withdrawal from the Gringotts Bank\n  event LogWeiWithdrawal(address _accountAddress,uint _withdrawalAmount, uint _updatedBalance);\n\n  /**\n    @param _galleon the ERC20 token this contract will use\n    @notice After the Galleon contract is deployed the address of the Galleon contract is \n      passed to the constructor of this bank contract so the bank can use ERC20 tokens\n  */\n  constructor (IERC20 _galleon) {\n    galleon = _galleon;\n  }\n\n  /// @param _amountToWithdrawInWei the amount the user wants to withdraw in Wei\n  /// @notice User must have sufficient funds in their account balance to withdraw their Wei \n  modifier hasFunds(uint _amountToWithdrawInWei) {\n    require(balances[msg.sender] >= _amountToWithdrawInWei, \"Insufficient funds\");\n    _; \n  }\n\n  /// @param _user the user must have an account with a balance in the bank to receive Galleon token rewards\n  /// @param timestamp set to the block timestamp at the time of the user's initial deposit into the bank\n  /** @notice In production the requirement would be for a user to hold a deposit in the bank for >= 1 year:\n      For the purpose of testing this project, the user will receive Galleons for making an initial deposit \n      without the aforementioned time requirement. \n  */\n  modifier isHodler(address _user) {\n    /// @dev In production, uncomment line 55 (next line) and delete line 56 (next line + 1)\n      // require((timestamp[_user] + 365 days) >= block.timestamp, \"Hasn't held funds longer than 1 year\");\n    require((timestamp[_user] - 1 days) < block.timestamp, \"Hasn't held funds long enough\");\n    _;\n  }\n\n  /// @notice You have made a deposit to your Gringotts Bank account\n  function deposit() \n    external \n    payable \n    nonReentrant \n  {\n    require(msg.value > 0, \"Must deposit at least 1 wei\");\n    /// @notice HODL time initiated at current block.timestamp\n    if(timestamp[msg.sender] == 0 && balances[msg.sender] == 0) {\n      timestamp[msg.sender] = block.timestamp;\n    }\n\n    /// @notice updates user's wei balance in their bank account\n    balances[msg.sender] += msg.value;\n\n    /// @notice emits log of the deposit\n    emit LogWeiDeposit(msg.sender, msg.value);\n  }\n\n  /// @param _amountToWithdrawInWei amount user wishes to withdraw in wei\n  /// @notice You must have sufficient funds in your account balance to make a withdrawal\n  function withdraw(uint _amountToWithdrawInWei) \n    external \n    payable \n    hasFunds(_amountToWithdrawInWei) \n    nonReentrant \n  {\n    \n    address payable _user = payable(msg.sender);\n    \n    /// @notice withdrawal amount in wei deducted from user's balance in their bank account\n    balances[msg.sender] -= _amountToWithdrawInWei;\n    \n    /// @notice timestamp for tracking how long user has held a deposit without withdrawing liquidity is reset to 0\n    timestamp[msg.sender] = 0;\n\n    /// @notice withdrawal amount in wei is transferred to the user's EOA\n    (bool success, ) = _user.call{value:_amountToWithdrawInWei}(\"\");\n    require(success, \"Transfer failed.\");\n    /// @notice emits log of the withdrawal\n    emit LogWeiWithdrawal(msg.sender, _amountToWithdrawInWei, balances[msg.sender]);\n  }\n\n  /// @param from the owner\n  /** @notice Allows only the owner of the ERC20 contract Galleon.sol to approve this\n      contract to spend Galleon tokens. \n  */\n  function transferGalleonsToContract(uint _amountToContractInGalleons) \n    external \n    onlyOwner \n  {\n    address from = msg.sender;\n\n    /// @dev refer to https://forum.openzeppelin.com/t/example-on-how-to-use-erc20-token-in-another-contract/1682\n    /// @notice Transfers Galleon ERC20 token from the owner to this contract so bank\n    galleon.transferFrom(from, address(this), _amountToContractInGalleons);\n  }\n\n  /// @notice Rewards liquidity providers with Galleon tokens if they hold a deposit in the bank\n  function mintGalleonsToUser(address _user) \n    public \n    isHodler(_user)\n    nonReentrant\n  {\n    /**  @dev In production the isHodler requirement would add the requirement of holding a deposit \n          for 1 year to receive reward tokens */ \n    require(galleon.balanceOf(_user) == 0, \"User has already claimed rewards\");\n    \n    /// @notice Bank transfer 1000 Galleons (ERC20 token) to an account holder\n    galleon.transfer(_user, 1000 * 10**18);\n\n    /// @notice Timestamp for user is reset to 0 once rewards are claimed for the year\n    timestamp[_user] = 0;\n  }\n\n  /// @notice Get wei balance in user's account \n  /// @return returns uint\n  function getWeiBalance() external view returns (uint) {\n    return balances[msg.sender];\n  }\n\n  /// @notice Get timestamp for how long user has provided liquidity to bank  \n  /// @return returns uint\n  function getTimestamp() external view returns(uint) {\n    return timestamp[msg.sender];\n  }\n\n  /// @notice Pause the contract \n  /// @dev Circuit breaker pattern\n  function pause() \n    public \n    onlyOwner \n  {\n    Pausable._pause();\n  }\n\n  /// @notice Resume the contract for both reads and writes\n  /// @dev Circuit breaker pattern\n  function unpause() \n    public \n    onlyOwner \n  {\n    Pausable._unpause();\n  }\n}",
  "sourcePath": "/Users/dinahj/Desktop/Consensys-Bootcamp/blockchain-developer-bootcamp-final-project/contracts/Gringotts.sol",
  "compiler": {
    "name": "solc",
    "version": "0.8.0+commit.c7dfd78e.Emscripten.clang"
  },
  "schemaVersion": "3.4.3",
  "updatedAt": "2021-11-30T21:59:16.494Z",
  "networkType": "ethereum",
  "devdoc": {
    "author": "Dinah Johnson",
    "kind": "dev",
    "methods": {
      "constructor": {
        "params": {
          "_galleon": "the ERC20 token this contract will use"
        }
      },
      "getTimestamp()": {
        "returns": {
          "_0": "returns uint"
        }
      },
      "getWeiBalance()": {
        "returns": {
          "_0": "returns uint"
        }
      },
      "owner()": {
        "details": "Returns the address of the current owner."
      },
      "pause()": {
        "details": "Circuit breaker pattern"
      },
      "paused()": {
        "details": "Returns true if the contract is paused, and false otherwise."
      },
      "renounceOwnership()": {
        "details": "Leaves the contract without owner. It will not be possible to call `onlyOwner` functions anymore. Can only be called by the current owner. NOTE: Renouncing ownership will leave the contract without an owner, thereby removing any functionality that is only available to the owner."
      },
      "transferOwnership(address)": {
        "details": "Transfers ownership of the contract to a new account (`newOwner`). Can only be called by the current owner."
      },
      "unpause()": {
        "details": "Circuit breaker pattern"
      },
      "withdraw(uint256)": {
        "params": {
          "_amountToWithdrawInWei": "amount user wishes to withdraw in wei"
        }
      }
    },
    "stateVariables": {
      "galleon": {
        "details": "refer to https://docs.openzeppelin.com/contracts/2.x/api/token/erc20#IERC20"
      }
    },
    "title": "Gringotts Bank Dapp",
    "version": 1
  },
  "userdoc": {
    "events": {
      "LogWeiDeposit(address,uint256)": {
        "notice": "You have made a deposit in the Gringotts Bank"
      },
      "LogWeiWithdrawal(address,uint256,uint256)": {
        "notice": "You have made a withdrawal from the Gringotts Bank"
      }
    },
    "kind": "user",
    "methods": {
      "constructor": {
        "notice": "After the Galleon contract is deployed the address of the Galleon contract is  passed to the constructor of this bank contract so the bank can use ERC20 tokens"
      },
      "deposit()": {
        "notice": "You have made a deposit to your Gringotts Bank account"
      },
      "getTimestamp()": {
        "notice": "Get timestamp for how long user has provided liquidity to bank  "
      },
      "getWeiBalance()": {
        "notice": "Get wei balance in user's account "
      },
      "mintGalleonsToUser(address)": {
        "notice": "Rewards liquidity providers with Galleon tokens if they hold a deposit in the bank"
      },
      "pause()": {
        "notice": "Pause the contract "
      },
      "transferGalleonsToContract(uint256)": {
        "notice": "Allows only the owner of the ERC20 contract Galleon.sol to approve this contract to spend Galleon tokens. "
      },
      "unpause()": {
        "notice": "Resume the contract for both reads and writes"
      },
      "withdraw(uint256)": {
        "notice": "You must have sufficient funds in your account balance to make a withdrawal"
      }
    },
    "notice": "You can use this contract for basic DeFi simulations of deposits, withdrawals, and rewarding liquidity providers",
    "version": 1
  }
}