{
  "contractName": "Gringotts",
  "abi": [
    {
      "inputs": [
        {
          "internalType": "contract IERC20",
          "name": "_galleon",
          "type": "address"
        }
      ],
      "stateMutability": "nonpayable",
      "type": "constructor"
    },
    {
      "anonymous": false,
      "inputs": [
        {
          "indexed": false,
          "internalType": "address",
          "name": "_accountAddress",
          "type": "address"
        },
        {
          "indexed": false,
          "internalType": "uint256",
          "name": "_depositAmount",
          "type": "uint256"
        }
      ],
      "name": "LogDeposit",
      "type": "event"
    },
    {
      "anonymous": false,
      "inputs": [
        {
          "indexed": false,
          "internalType": "address",
          "name": "_accountAddress",
          "type": "address"
        },
        {
          "indexed": false,
          "internalType": "uint256",
          "name": "_withdrawalAmount",
          "type": "uint256"
        },
        {
          "indexed": false,
          "internalType": "uint256",
          "name": "_updatedBalance",
          "type": "uint256"
        }
      ],
      "name": "LogWithdrawal",
      "type": "event"
    },
    {
      "anonymous": false,
      "inputs": [
        {
          "indexed": true,
          "internalType": "address",
          "name": "previousOwner",
          "type": "address"
        },
        {
          "indexed": true,
          "internalType": "address",
          "name": "newOwner",
          "type": "address"
        }
      ],
      "name": "OwnershipTransferred",
      "type": "event"
    },
    {
      "anonymous": false,
      "inputs": [
        {
          "indexed": false,
          "internalType": "address",
          "name": "account",
          "type": "address"
        }
      ],
      "name": "Paused",
      "type": "event"
    },
    {
      "anonymous": false,
      "inputs": [
        {
          "indexed": false,
          "internalType": "address",
          "name": "account",
          "type": "address"
        }
      ],
      "name": "Unpaused",
      "type": "event"
    },
    {
      "inputs": [],
      "name": "owner",
      "outputs": [
        {
          "internalType": "address",
          "name": "",
          "type": "address"
        }
      ],
      "stateMutability": "view",
      "type": "function",
      "constant": true
    },
    {
      "inputs": [],
      "name": "paused",
      "outputs": [
        {
          "internalType": "bool",
          "name": "",
          "type": "bool"
        }
      ],
      "stateMutability": "view",
      "type": "function",
      "constant": true
    },
    {
      "inputs": [],
      "name": "renounceOwnership",
      "outputs": [],
      "stateMutability": "nonpayable",
      "type": "function"
    },
    {
      "inputs": [
        {
          "internalType": "address",
          "name": "newOwner",
          "type": "address"
        }
      ],
      "name": "transferOwnership",
      "outputs": [],
      "stateMutability": "nonpayable",
      "type": "function"
    },
    {
      "inputs": [],
      "name": "deposit",
      "outputs": [],
      "stateMutability": "payable",
      "type": "function",
      "payable": true
    },
    {
      "inputs": [
        {
          "internalType": "uint256",
          "name": "_amount",
          "type": "uint256"
        }
      ],
      "name": "withdraw",
      "outputs": [],
      "stateMutability": "payable",
      "type": "function",
      "payable": true
    },
    {
      "inputs": [
        {
          "internalType": "uint256",
          "name": "_amount",
          "type": "uint256"
        }
      ],
      "name": "transferGalleonsToContract",
      "outputs": [],
      "stateMutability": "nonpayable",
      "type": "function"
    },
    {
      "inputs": [
        {
          "internalType": "address",
          "name": "_to",
          "type": "address"
        }
      ],
      "name": "mintGalleonsToUser",
      "outputs": [],
      "stateMutability": "nonpayable",
      "type": "function"
    },
    {
      "inputs": [],
      "name": "getBalance",
      "outputs": [
        {
          "internalType": "uint256",
          "name": "",
          "type": "uint256"
        }
      ],
      "stateMutability": "view",
      "type": "function",
      "constant": true
    },
    {
      "inputs": [],
      "name": "getTimestamp",
      "outputs": [
        {
          "internalType": "uint256",
          "name": "",
          "type": "uint256"
        }
      ],
      "stateMutability": "view",
      "type": "function",
      "constant": true
    },
    {
      "inputs": [],
      "name": "pause",
      "outputs": [],
      "stateMutability": "nonpayable",
      "type": "function"
    },
    {
      "inputs": [],
      "name": "unpause",
      "outputs": [],
      "stateMutability": "nonpayable",
      "type": "function"
    }
  ],
  "bytecode": "0x60806040523480156200001157600080fd5b50604051620016013803806200160183398181016040528101906200003791906200019c565b620000576200004b620000b960201b60201c565b620000c160201b60201c565b60008060146101000a81548160ff02191690831515021790555080600160006101000a81548173ffffffffffffffffffffffffffffffffffffffff021916908373ffffffffffffffffffffffffffffffffffffffff160217905550506200022a565b600033905090565b60008060009054906101000a900473ffffffffffffffffffffffffffffffffffffffff169050816000806101000a81548173ffffffffffffffffffffffffffffffffffffffff021916908373ffffffffffffffffffffffffffffffffffffffff1602179055508173ffffffffffffffffffffffffffffffffffffffff168173ffffffffffffffffffffffffffffffffffffffff167f8be0079c531659141344cd1fd0a4f28419497f9722a3daafe3b4186f6b6457e060405160405180910390a35050565b600081519050620001968162000210565b92915050565b600060208284031215620001af57600080fd5b6000620001bf8482850162000185565b91505092915050565b6000620001d582620001f0565b9050919050565b6000620001e982620001c8565b9050919050565b600073ffffffffffffffffffffffffffffffffffffffff82169050919050565b6200021b81620001dc565b81146200022757600080fd5b50565b6113c7806200023a6000396000f3fe6080604052600436106100a75760003560e01c8063715018a611610064578063715018a6146101895780638456cb59146101a05780638da5cb5b146101b7578063d0e30db0146101e2578063d22fe713146101ec578063f2fde38b14610215576100a7565b806312065fe0146100ac578063188ec356146100d75780632e1a7d4d1461010257806333fb30951461011e5780633f4ba83a146101475780635c975abb1461015e575b600080fd5b3480156100b857600080fd5b506100c161023e565b6040516100ce919061120d565b60405180910390f35b3480156100e357600080fd5b506100ec610285565b6040516100f9919061120d565b60405180910390f35b61011c60048036038101906101179190610e4c565b6102cc565b005b34801561012a57600080fd5b5061014560048036038101906101409190610dfa565b6104b5565b005b34801561015357600080fd5b5061015c610640565b005b34801561016a57600080fd5b506101736106c6565b6040516101809190611132565b60405180910390f35b34801561019557600080fd5b5061019e6106dc565b005b3480156101ac57600080fd5b506101b5610764565b005b3480156101c357600080fd5b506101cc6107ea565b6040516101d99190611057565b60405180910390f35b6101ea610813565b005b3480156101f857600080fd5b50610213600480360381019061020e9190610e4c565b61097c565b005b34801561022157600080fd5b5061023c60048036038101906102379190610dfa565b610ab3565b005b6000600260003373ffffffffffffffffffffffffffffffffffffffff1673ffffffffffffffffffffffffffffffffffffffff16815260200190815260200160002054905090565b6000600360003373ffffffffffffffffffffffffffffffffffffffff1673ffffffffffffffffffffffffffffffffffffffff16815260200190815260200160002054905090565b8080600260003373ffffffffffffffffffffffffffffffffffffffff1673ffffffffffffffffffffffffffffffffffffffff16815260200190815260200160002054101561034f576040517f08c379a0000000000000000000000000000000000000000000000000000000008152600401610346906111ad565b60405180910390fd5b600033905082600260003373ffffffffffffffffffffffffffffffffffffffff1673ffffffffffffffffffffffffffffffffffffffff16815260200190815260200160002060008282546103a3919061128f565b925050819055506000600360003373ffffffffffffffffffffffffffffffffffffffff1673ffffffffffffffffffffffffffffffffffffffff168152602001908152602001600020819055508073ffffffffffffffffffffffffffffffffffffffff166108fc849081150290604051600060405180830381858888f19350505050158015610435573d6000803e3d6000fd5b507ff9226daf630542048a23086c6af599511aac100ec8f532793cc9697d061bed7e3384600260003373ffffffffffffffffffffffffffffffffffffffff1673ffffffffffffffffffffffffffffffffffffffff168152602001908152602001600020546040516104a8939291906110fb565b60405180910390a1505050565b804262278d00600360008473ffffffffffffffffffffffffffffffffffffffff1673ffffffffffffffffffffffffffffffffffffffff16815260200190815260200160002054610505919061128f565b10610545576040517f08c379a000000000000000000000000000000000000000000000000000000000815260040161053c9061116d565b60405180910390fd5b600160009054906101000a900473ffffffffffffffffffffffffffffffffffffffff1673ffffffffffffffffffffffffffffffffffffffff1663a9059cbb836103e86040518363ffffffff1660e01b81526004016105a49291906110a9565b602060405180830381600087803b1580156105be57600080fd5b505af11580156105d2573d6000803e3d6000fd5b505050506040513d601f19601f820116820180604052508101906105f69190610e23565b506000600360008473ffffffffffffffffffffffffffffffffffffffff1673ffffffffffffffffffffffffffffffffffffffff168152602001908152602001600020819055505050565b610648610bab565b73ffffffffffffffffffffffffffffffffffffffff166106666107ea565b73ffffffffffffffffffffffffffffffffffffffff16146106bc576040517f08c379a00000000000000000000000000000000000000000000000000000000081526004016106b3906111ed565b60405180910390fd5b6106c4610bb3565b565b60008060149054906101000a900460ff16905090565b6106e4610bab565b73ffffffffffffffffffffffffffffffffffffffff166107026107ea565b73ffffffffffffffffffffffffffffffffffffffff1614610758576040517f08c379a000000000000000000000000000000000000000000000000000000000815260040161074f906111ed565b60405180910390fd5b6107626000610c54565b565b61076c610bab565b73ffffffffffffffffffffffffffffffffffffffff1661078a6107ea565b73ffffffffffffffffffffffffffffffffffffffff16146107e0576040517f08c379a00000000000000000000000000000000000000000000000000000000081526004016107d7906111ed565b60405180910390fd5b6107e8610d18565b565b60008060009054906101000a900473ffffffffffffffffffffffffffffffffffffffff16905090565b6000600360003373ffffffffffffffffffffffffffffffffffffffff1673ffffffffffffffffffffffffffffffffffffffff168152602001908152602001600020541480156108a157506000600260003373ffffffffffffffffffffffffffffffffffffffff1673ffffffffffffffffffffffffffffffffffffffff16815260200190815260200160002054145b156108eb5742600360003373ffffffffffffffffffffffffffffffffffffffff1673ffffffffffffffffffffffffffffffffffffffff168152602001908152602001600020819055505b34600260003373ffffffffffffffffffffffffffffffffffffffff1673ffffffffffffffffffffffffffffffffffffffff168152602001908152602001600020600082825461093a9190611239565b925050819055507f1b851e1031ef35a238e6c67d0c7991162390df915f70eaf9098dbf0b175a619833346040516109729291906110d2565b60405180910390a1565b610984610bab565b73ffffffffffffffffffffffffffffffffffffffff166109a26107ea565b73ffffffffffffffffffffffffffffffffffffffff16146109f8576040517f08c379a00000000000000000000000000000000000000000000000000000000081526004016109ef906111ed565b60405180910390fd5b6000339050600160009054906101000a900473ffffffffffffffffffffffffffffffffffffffff1673ffffffffffffffffffffffffffffffffffffffff166323b872dd8230856040518463ffffffff1660e01b8152600401610a5c93929190611072565b602060405180830381600087803b158015610a7657600080fd5b505af1158015610a8a573d6000803e3d6000fd5b505050506040513d601f19601f82011682018060405250810190610aae9190610e23565b505050565b610abb610bab565b73ffffffffffffffffffffffffffffffffffffffff16610ad96107ea565b73ffffffffffffffffffffffffffffffffffffffff1614610b2f576040517f08c379a0000000000000000000000000000000000000000000000000000000008152600401610b26906111ed565b60405180910390fd5b600073ffffffffffffffffffffffffffffffffffffffff168173ffffffffffffffffffffffffffffffffffffffff161415610b9f576040517f08c379a0000000000000000000000000000000000000000000000000000000008152600401610b969061118d565b60405180910390fd5b610ba881610c54565b50565b600033905090565b610bbb6106c6565b610bfa576040517f08c379a0000000000000000000000000000000000000000000000000000000008152600401610bf19061114d565b60405180910390fd5b60008060146101000a81548160ff0219169083151502179055507f5db9ee0a495bf2e6ff9c91a7834c1ba4fdd244a5e8aa4e537bd38aeae4b073aa610c3d610bab565b604051610c4a9190611057565b60405180910390a1565b60008060009054906101000a900473ffffffffffffffffffffffffffffffffffffffff169050816000806101000a81548173ffffffffffffffffffffffffffffffffffffffff021916908373ffffffffffffffffffffffffffffffffffffffff1602179055508173ffffffffffffffffffffffffffffffffffffffff168173ffffffffffffffffffffffffffffffffffffffff167f8be0079c531659141344cd1fd0a4f28419497f9722a3daafe3b4186f6b6457e060405160405180910390a35050565b610d206106c6565b15610d60576040517f08c379a0000000000000000000000000000000000000000000000000000000008152600401610d57906111cd565b60405180910390fd5b6001600060146101000a81548160ff0219169083151502179055507f62e78cea01bee320cd4e420270b5ea74000d11b0c9f74754ebdbfc544b05a258610da4610bab565b604051610db19190611057565b60405180910390a1565b600081359050610dca8161134c565b92915050565b600081519050610ddf81611363565b92915050565b600081359050610df48161137a565b92915050565b600060208284031215610e0c57600080fd5b6000610e1a84828501610dbb565b91505092915050565b600060208284031215610e3557600080fd5b6000610e4384828501610dd0565b91505092915050565b600060208284031215610e5e57600080fd5b6000610e6c84828501610de5565b91505092915050565b610e7e816112c3565b82525050565b610e8d816112d5565b82525050565b610e9c8161130b565b82525050565b6000610eaf601483611228565b91507f5061757361626c653a206e6f74207061757365640000000000000000000000006000830152602082019050919050565b6000610eef601d83611228565b91507f4861736e27742068656c642066756e6473206c6f6e6720656e6f7567680000006000830152602082019050919050565b6000610f2f602683611228565b91507f4f776e61626c653a206e6577206f776e657220697320746865207a65726f206160008301527f64647265737300000000000000000000000000000000000000000000000000006020830152604082019050919050565b6000610f95601283611228565b91507f496e73756666696369656e742066756e647300000000000000000000000000006000830152602082019050919050565b6000610fd5601083611228565b91507f5061757361626c653a20706175736564000000000000000000000000000000006000830152602082019050919050565b6000611015602083611228565b91507f4f776e61626c653a2063616c6c6572206973206e6f7420746865206f776e65726000830152602082019050919050565b61105181611301565b82525050565b600060208201905061106c6000830184610e75565b92915050565b60006060820190506110876000830186610e75565b6110946020830185610e75565b6110a16040830184611048565b949350505050565b60006040820190506110be6000830185610e75565b6110cb6020830184610e93565b9392505050565b60006040820190506110e76000830185610e75565b6110f46020830184611048565b9392505050565b60006060820190506111106000830186610e75565b61111d6020830185611048565b61112a6040830184611048565b949350505050565b60006020820190506111476000830184610e84565b92915050565b6000602082019050818103600083015261116681610ea2565b9050919050565b6000602082019050818103600083015261118681610ee2565b9050919050565b600060208201905081810360008301526111a681610f22565b9050919050565b600060208201905081810360008301526111c681610f88565b9050919050565b600060208201905081810360008301526111e681610fc8565b9050919050565b6000602082019050818103600083015261120681611008565b9050919050565b60006020820190506112226000830184611048565b92915050565b600082825260208201905092915050565b600061124482611301565b915061124f83611301565b9250827fffffffffffffffffffffffffffffffffffffffffffffffffffffffffffffffff038211156112845761128361131d565b5b828201905092915050565b600061129a82611301565b91506112a583611301565b9250828210156112b8576112b761131d565b5b828203905092915050565b60006112ce826112e1565b9050919050565b60008115159050919050565b600073ffffffffffffffffffffffffffffffffffffffff82169050919050565b6000819050919050565b600061131682611301565b9050919050565b7f4e487b7100000000000000000000000000000000000000000000000000000000600052601160045260246000fd5b611355816112c3565b811461136057600080fd5b50565b61136c816112d5565b811461137757600080fd5b50565b61138381611301565b811461138e57600080fd5b5056fea2646970667358221220dba3cc6b8ab4d39f1745718230c45a593674b6a81bd3a99d94ec2fcbb831cf3864736f6c63430008000033",
  "immutableReferences": {},
  "source": "// SPDX-License-Identifier: MIT\npragma solidity ^0.8.0;\n\nimport \"@openzeppelin/contracts/access/Ownable.sol\";\nimport \"@openzeppelin/contracts/security/Pausable.sol\";\nimport \"@openzeppelin/contracts/token/ERC20/ERC20.sol\";\n\ncontract Gringotts is Ownable, Pausable {\n  \n  IERC20 private galleon;\n\n  mapping (address => uint) private balances;\n  mapping (address => uint) private timestamp;\n  \n\n  event LogDeposit(address _accountAddress, uint _depositAmount);\n  event LogWithdrawal(address _accountAddress,uint _withdrawalAmount, uint _updatedBalance);\n\n  constructor (IERC20 _galleon) {\n    galleon = _galleon;\n  }\n\n  modifier hasFunds(uint _amount) {\n    require(balances[msg.sender] >= _amount, \"Insufficient funds\");\n    _; \n  }\n\n  modifier isHodler(address _to) {\n    require((timestamp[_to] - 30 days) < block.timestamp, \"Hasn't held funds long enough\");\n    _;\n  }\n\n  function deposit() public payable {\n    \n    if(timestamp[msg.sender] == 0 && balances[msg.sender] == 0) {\n      timestamp[msg.sender] = block.timestamp;\n    }\n\n    balances[msg.sender] += msg.value;\n\n    emit LogDeposit(msg.sender, msg.value);\n  }\n\n  function withdraw(uint _amount) public payable hasFunds(_amount) {\n    address payable _user = payable(msg.sender);\n    balances[msg.sender] -= _amount;\n    \n    // Reset timestamp\n    timestamp[msg.sender] = 0;\n\n    _user.transfer(_amount);\n    \n    emit LogWithdrawal(msg.sender, _amount, balances[msg.sender]);\n  }\n\n  function transferGalleonsToContract(uint _amount) external onlyOwner {\n    address from = msg.sender;\n\n    galleon.transferFrom(from, address(this), _amount);\n  }\n\n  function mintGalleonsToUser(address _to) public isHodler(_to) {\n    galleon.transfer( _to, 1000);\n\n    timestamp[_to] = 0;\n  }\n\n  function getBalance() external view returns (uint) {\n    return balances[msg.sender];\n  }\n\n  function getTimestamp() external view returns(uint) {\n    return timestamp[msg.sender];\n  }\n\n  /// @notice Pause the contract \n  /// @dev Circuit breaker pattern\n  function pause() public onlyOwner {\n    Pausable._pause();\n  }\n\n  /// @notice Resume the contract for both reads and writes\n  /// @dev Circuit breaker pattern\n  function unpause() public onlyOwner {\n    Pausable._unpause();\n  }\n}",
  "sourcePath": "/Users/dinahj/Desktop/Consensys-Bootcamp/blockchain-developer-bootcamp-final-project/contracts/Gringotts.sol",
  "compiler": {
    "name": "solc",
    "version": "0.8.0+commit.c7dfd78e.Emscripten.clang"
  },
  "schemaVersion": "3.4.3",
  "updatedAt": "2021-11-28T15:56:13.151Z",
  "networkType": "ethereum",
  "devdoc": {
    "kind": "dev",
    "methods": {
      "owner()": {
        "details": "Returns the address of the current owner."
      },
      "pause()": {
        "details": "Circuit breaker pattern"
      },
      "paused()": {
        "details": "Returns true if the contract is paused, and false otherwise."
      },
      "renounceOwnership()": {
        "details": "Leaves the contract without owner. It will not be possible to call `onlyOwner` functions anymore. Can only be called by the current owner. NOTE: Renouncing ownership will leave the contract without an owner, thereby removing any functionality that is only available to the owner."
      },
      "transferOwnership(address)": {
        "details": "Transfers ownership of the contract to a new account (`newOwner`). Can only be called by the current owner."
      },
      "unpause()": {
        "details": "Circuit breaker pattern"
      }
    },
    "version": 1
  },
  "userdoc": {
    "kind": "user",
    "methods": {
      "pause()": {
        "notice": "Pause the contract "
      },
      "unpause()": {
        "notice": "Resume the contract for both reads and writes"
      }
    },
    "version": 1
  }
}